{
  "contractName": "one",
  "abi": [
    {
      "constant": true,
      "inputs": [],
      "name": "totalSupply",
      "outputs": [
        {
          "name": "",
          "type": "uint256"
        }
      ],
      "payable": false,
      "stateMutability": "view",
      "type": "function"
    },
    {
      "constant": true,
      "inputs": [],
      "name": "lockedtokens",
      "outputs": [
        {
          "name": "",
          "type": "uint256"
        }
      ],
      "payable": false,
      "stateMutability": "view",
      "type": "function"
    },
    {
      "inputs": [
        {
          "name": "intialSupply",
          "type": "uint256"
        }
      ],
      "payable": false,
      "stateMutability": "nonpayable",
      "type": "constructor"
    },
    {
      "anonymous": false,
      "inputs": [
        {
          "indexed": true,
          "name": "from",
          "type": "address"
        },
        {
          "indexed": true,
          "name": "to",
          "type": "address"
        },
        {
          "indexed": false,
          "name": "tokens",
          "type": "uint256"
        }
      ],
      "name": "Transfer",
      "type": "event"
    },
    {
      "constant": false,
      "inputs": [
        {
          "name": "requiredresources",
          "type": "uint256"
        }
      ],
      "name": "GetResources",
      "outputs": [
        {
          "name": "",
          "type": "bool"
        }
      ],
      "payable": false,
      "stateMutability": "nonpayable",
      "type": "function"
    },
    {
      "constant": true,
      "inputs": [
        {
          "name": "tokenOwner",
          "type": "address"
        }
      ],
      "name": "balanceOf",
      "outputs": [
        {
          "name": "balance",
          "type": "uint256"
        }
      ],
      "payable": false,
      "stateMutability": "view",
      "type": "function"
    },
    {
      "constant": true,
      "inputs": [],
      "name": "isOwner",
      "outputs": [
        {
          "name": "result",
          "type": "bool"
        }
      ],
      "payable": false,
      "stateMutability": "view",
      "type": "function"
    },
    {
      "constant": false,
      "inputs": [
        {
          "name": "to",
          "type": "address"
        },
        {
          "name": "tokens",
          "type": "uint256"
        }
      ],
      "name": "CompleteTransaction",
      "outputs": [
        {
          "name": "success",
          "type": "bool"
        }
      ],
      "payable": false,
      "stateMutability": "nonpayable",
      "type": "function"
    }
  ],
  "bytecode": "0x608060405234801561001057600080fd5b506040516020806105748339810180604052810190808051906020019092919050505080600160003373ffffffffffffffffffffffffffffffffffffffff1673ffffffffffffffffffffffffffffffffffffffff168152602001908152602001600020819055508060008190555033600360006101000a81548173ffffffffffffffffffffffffffffffffffffffff021916908373ffffffffffffffffffffffffffffffffffffffff160217905550506104a5806100cf6000396000f300608060405260043610610078576000357c0100000000000000000000000000000000000000000000000000000000900463ffffffff16806318160ddd1461007d57806370a08231146100a857806376acd821146100ff5780638f32d59b1461012a578063d7cfdeda14610159578063f02220b01461019e575b600080fd5b34801561008957600080fd5b50610092610203565b6040518082815260200191505060405180910390f35b3480156100b457600080fd5b506100e9600480360381019080803573ffffffffffffffffffffffffffffffffffffffff169060200190929190505050610209565b6040518082815260200191505060405180910390f35b34801561010b57600080fd5b50610114610252565b6040518082815260200191505060405180910390f35b34801561013657600080fd5b5061013f610258565b604051808215151515815260200191505060405180910390f35b34801561016557600080fd5b50610184600480360381019080803590602001909291905050506102c1565b604051808215151515815260200191505060405180910390f35b3480156101aa57600080fd5b506101e9600480360381019080803573ffffffffffffffffffffffffffffffffffffffff169060200190929190803590602001909291905050506102fe565b604051808215151515815260200191505060405180910390f35b60005481565b6000600160008373ffffffffffffffffffffffffffffffffffffffff1673ffffffffffffffffffffffffffffffffffffffff168152602001908152602001600020549050919050565b60025481565b6000600360009054906101000a900473ffffffffffffffffffffffffffffffffffffffff1673ffffffffffffffffffffffffffffffffffffffff163373ffffffffffffffffffffffffffffffffffffffff1614156102b957600190506102be565b600090505b90565b6000806000905082600054101580156102e05750600054836002540111155b156102f5578260025401600281905550600190505b80915050919050565b600081600160003373ffffffffffffffffffffffffffffffffffffffff1673ffffffffffffffffffffffffffffffffffffffff1681526020019081526020016000205403600160003373ffffffffffffffffffffffffffffffffffffffff1673ffffffffffffffffffffffffffffffffffffffff1681526020019081526020016000208190555081600160008573ffffffffffffffffffffffffffffffffffffffff1673ffffffffffffffffffffffffffffffffffffffff1681526020019081526020016000205401600160008573ffffffffffffffffffffffffffffffffffffffff1673ffffffffffffffffffffffffffffffffffffffff168152602001908152602001600020819055508273ffffffffffffffffffffffffffffffffffffffff163373ffffffffffffffffffffffffffffffffffffffff167fddf252ad1be2c89b69c2b068fc378daa952ba7f163c4a11628f55a4df523b3ef846040518082815260200191505060405180910390a360019050929150505600a165627a7a7230582066fed111c75794e07eda75b1c350a685d74e560b34836f29d360e53637c3af380029",
  "source": "pragma solidity ^0.4.20;\r\n\r\n\r\ncontract one{\r\n   \r\n    uint256 public totalSupply;\r\n    event Transfer(address indexed from, address indexed to, uint tokens);\r\n    mapping(address => uint256) balances;\r\n    uint256 public lockedtokens;\r\n    address owner;\r\n    \r\n    constructor(uint intialSupply) public{\r\n        /* give all tokens to creater of contract */\r\n        balances[msg.sender] = intialSupply;\r\n        totalSupply = intialSupply;\r\n        owner = msg.sender;\r\n    }\r\n    \r\n    function GetResources(uint256 requiredresources) public returns(bool)  { \r\n        bool result = false;\r\n        if(totalSupply >= requiredresources \r\n            && ((lockedtokens + requiredresources) <= totalSupply)) \r\n        {\r\n            lockedtokens = lockedtokens + requiredresources;\r\n            result= true;\r\n        }    \r\n        return result;    \r\n    }\r\n    \r\n    function balanceOf(address tokenOwner) public view returns (uint balance) {\r\n        return balances[tokenOwner];\r\n    }\r\n\r\n     function isOwner() public view returns (bool result) {\r\n         if(msg.sender == owner)\r\n          return true;\r\n         else\r\n         return false;\r\n           \r\n        // return balances[tokenOwner];\r\n    }\r\n\r\n   function CompleteTransaction(address to, uint tokens) public returns (bool success) {\r\n        balances[msg.sender] = balances[msg.sender] - tokens;\r\n        balances[to] = balances[to]+ tokens;\r\n        emit Transfer(msg.sender, to, tokens);\r\n        return true;\r\n    }\r\n    \r\n}",
  "sourcePath": "D:\\ProFoo\\blockchain_disastermanagement\\contracts\\one.sol",
  "compiler": {
    "name": "solc",
    "version": "0.4.26+commit.4563c3fc.Emscripten.clang"
  },
  "schemaVersion": "3.4.3",
  "updatedAt": "2021-12-08T22:46:55.730Z",
  "devdoc": {
    "methods": {}
  },
  "userdoc": {
    "methods": {}
  }
}